{"abi":[{"type":"constructor","inputs":[{"name":"_updateWeightRunner","type":"address","internalType":"address"}],"stateMutability":"nonpayable"},{"type":"function","name":"CalculateNewWeights","inputs":[{"name":"_prevWeights","type":"int256[]","internalType":"int256[]"},{"name":"_data","type":"int256[]","internalType":"int256[]"},{"name":"_pool","type":"address","internalType":"address"},{"name":"_parameters","type":"int256[][]","internalType":"int256[][]"},{"name":"_lambdaStore","type":"uint64[]","internalType":"uint64[]"},{"name":"_epsilonMax","type":"uint64","internalType":"uint64"},{"name":"_absoluteWeightGuardRail","type":"uint64","internalType":"uint64"}],"outputs":[{"name":"updatedWeights","type":"int256[]","internalType":"int256[]"}],"stateMutability":"nonpayable"},{"type":"function","name":"initialisePoolRuleIntermediateValues","inputs":[{"name":"_poolAddress","type":"address","internalType":"address"},{"name":"_newMovingAverages","type":"int256[]","internalType":"int256[]"},{"name":"_newInitialValues","type":"int256[]","internalType":"int256[]"},{"name":"_numberOfAssets","type":"uint256","internalType":"uint256"}],"outputs":[],"stateMutability":"nonpayable"},{"type":"function","name":"movingAverages","inputs":[{"name":"","type":"address","internalType":"address"},{"name":"","type":"uint256","internalType":"uint256"}],"outputs":[{"name":"","type":"int256","internalType":"int256"}],"stateMutability":"view"},{"type":"function","name":"name","inputs":[],"outputs":[{"name":"","type":"string","internalType":"string"}],"stateMutability":"view"},{"type":"function","name":"parameterDescriptions","inputs":[{"name":"","type":"uint256","internalType":"uint256"}],"outputs":[{"name":"","type":"string","internalType":"string"}],"stateMutability":"view"},{"type":"function","name":"validParameters","inputs":[{"name":"_parameters","type":"int256[][]","internalType":"int256[][]"}],"outputs":[{"name":"","type":"bool","internalType":"bool"}],"stateMutability":"pure"},{"type":"error","name":"PRBMathSD59x18__DivInputTooSmall","inputs":[]},{"type":"error","name":"PRBMathSD59x18__DivOverflow","inputs":[{"name":"rAbs","type":"uint256","internalType":"uint256"}]},{"type":"error","name":"PRBMathSD59x18__Exp2InputTooBig","inputs":[{"name":"x","type":"int256","internalType":"int256"}]},{"type":"error","name":"PRBMathSD59x18__FromIntOverflow","inputs":[{"name":"x","type":"int256","internalType":"int256"}]},{"type":"error","name":"PRBMathSD59x18__FromIntUnderflow","inputs":[{"name":"x","type":"int256","internalType":"int256"}]},{"type":"error","name":"PRBMathSD59x18__LogInputTooSmall","inputs":[{"name":"x","type":"int256","internalType":"int256"}]},{"type":"error","name":"PRBMathSD59x18__MulInputTooSmall","inputs":[]},{"type":"error","name":"PRBMathSD59x18__MulOverflow","inputs":[{"name":"rAbs","type":"uint256","internalType":"uint256"}]},{"type":"error","name":"PRBMath__MulDivFixedPointOverflow","inputs":[{"name":"prod1","type":"uint256","internalType":"uint256"}]},{"type":"error","name":"PRBMath__MulDivOverflow","inputs":[{"name":"prod1","type":"uint256","internalType":"uint256"},{"name":"denominator","type":"uint256","internalType":"uint256"}]}],"bytecode":{"object":"0x60a060405234801561000f575f80fd5b5060405161421738038061421783398101604081905261002e91610234565b6001600160a01b03811660805260408051808201909152600c81526b416e74694d6f6d656e74756d60a01b602082015260029061006b90826102f9565b506040805160038082526080820190925290816020015b606081526020019060019003908161008257505080516100aa91600391602090910190610176565b506040518060a00160405280606c8152602001614155606c913960035f815481106100d7576100d76103b3565b905f5260205f200190816100eb91906102f9565b506040518060800160405280605681526020016141c1605691396003600181548110610119576101196103b3565b905f5260205f2001908161012d91906102f9565b506040518060800160405280605e81526020016140f7605e9139600360028154811061015b5761015b6103b3565b905f5260205f2001908161016f91906102f9565b50506103c7565b828054828255905f5260205f209081019282156101ba579160200282015b828111156101ba57825182906101aa90826102f9565b5091602001919060010190610194565b506101c69291506101ca565b5090565b808211156101c6575f6101dd82826101e6565b506001016101ca565b5080546101f290610275565b5f825580601f10610201575050565b601f0160209004905f5260205f209081019061021d9190610220565b50565b5b808211156101c6575f8155600101610221565b5f60208284031215610244575f80fd5b81516001600160a01b038116811461025a575f80fd5b9392505050565b634e487b7160e01b5f52604160045260245ffd5b600181811c9082168061028957607f821691505b6020821081036102a757634e487b7160e01b5f52602260045260245ffd5b50919050565b601f8211156102f457805f5260205f20601f840160051c810160208510156102d25750805b601f840160051c820191505b818110156102f1575f81556001016102de565b50505b505050565b81516001600160401b0381111561031257610312610261565b610326816103208454610275565b846102ad565b6020601f821160018114610358575f83156103415750848201515b5f19600385901b1c1916600184901b1784556102f1565b5f84815260208120601f198516915b828110156103875787850151825560209485019460019092019101610367565b50848210156103a457868401515f19600387901b60f8161c191681555b50505050600190811b01905550565b634e487b7160e01b5f52603260045260245ffd5b608051613d116103e65f395f81816103cb01526104670152613d115ff3fe608060405234801561000f575f80fd5b506004361061006f575f3560e01c806344a01eb31161004d57806344a01eb3146100c7578063b9579b0d146100dc578063fe8cb6d7146100fc575f80fd5b806306fdde03146100735780630df61b8f1461009157806333417d8e146100b4575b5f80fd5b61007b61011d565b6040516100889190613768565b60405180910390f35b6100a461009f3660046137e5565b6101a9565b6040519015158152602001610088565b61007b6100c2366004613824565b610387565b6100da6100d5366004613901565b6103ae565b005b6100ef6100ea366004613994565b61045a565b6040516100889190613a93565b61010f61010a366004613ad5565b610c71565b604051908152602001610088565b6002805461012a90613afd565b80601f016020809104026020016040519081016040528092919081815260200182805461015690613afd565b80156101a15780601f10610178576101008083540402835291602001916101a1565b820191905f5260205f20905b81548152906001019060200180831161018457829003601f168201915b505050505081565b5f60018214806101ea57506002821480156101ea5750828260018181106101d2576101d2613b35565b90506020028101906101e49190613b49565b90506001145b1561037e575f83835f81811061020257610202613b35565b90506020028101906102149190613b49565b808060200260200160405190810160405280939291908181526020018383602002808284375f92018290525084519495509361ffff161515925061025b915050575f61025e565b60015b60ff1690505f5b825181101561029e575f83828151811061028157610281613b35565b602002602001015113610296575f915061029e565b600101610265565b506002841480156102d55750848460018181106102bd576102bd613b35565b90506020028101906102cf9190613b49565b90506001145b1561036d57848460018181106102ed576102ed613b35565b90506020028101906102ff9190613b49565b5f81811061030f5761030f613b35565b905060200201355f148061036657506103286001610c9c565b8585600181811061033b5761033b613b35565b905060200281019061034d9190613b49565b5f81811061035d5761035d613b35565b90506020020135145b61036d57505f5b8061ffff1660011492505050610381565b505f5b92915050565b60038181548110610396575f80fd5b905f5260205f20015f91509050805461012a90613afd565b336001600160a01b03851614806103ed5750336001600160a01b037f000000000000000000000000000000000000000000000000000000000000000016145b61043e5760405162461bcd60e51b815260206004820152600660248201527f554e41555448000000000000000000000000000000000000000000000000000060448201526064015b60405180910390fd5b610449848483610d5e565b610454848383610de8565b50505050565b6060336001600160a01b037f000000000000000000000000000000000000000000000000000000000000000016146104d45760405162461bcd60e51b815260206004820152600b60248201527f554e415554485f43414c430000000000000000000000000000000000000000006044820152606401610435565b610540604051806101c001604052805f81526020015f81526020015f81526020015f151581526020015f81526020016060815260200160608152602001606081526020016060815260200160608152602001606081526020015f81526020015f81526020015f81525090565b604081018c905261055260018d613ba3565b60208201528467ffffffffffffffff81111561057057610570613851565b604051908082528060200260200182016040528015610599578160200160208202803683370190505b506101408201525b610140810151518151101561061d578585825f01518181106105c5576105c5613b35565b90506020020160208101906105da9190613bb6565b67ffffffffffffffff16816101400151825f0151815181106105fe576105fe613b35565b600f9290920b60209283029190910190910152805160010181526105a1565b5f606082015260408101516080820181905267ffffffffffffffff81111561064757610647613851565b604051908082528060200260200182016040528015610670578160200160208202803683370190505b5060a0820152604081015167ffffffffffffffff81111561069357610693613851565b6040519080825280602002602001820160405280156106bc578160200160208202803683370190505b5060c0820152608081015167ffffffffffffffff8111156106df576106df613851565b604051908082528060200260200182016040528015610708578160200160208202803683370190505b5060e08201526001600160a01b0389165f90815260016020908152604091829020805483518184028101840190945280845261077b939283018282801561076c57602002820191905f5260205f20905b815481526020019060010190808311610758575b50505050508260400151610df3565b60a08201819052604080516020808e0282810182019093528d82526107c593928f918f9182918501908490808284375f920191909152505050506101408401516040850151610fbe565b60c082015260408101516107db90600290613be3565b156107ec576020810180515f190190525b5f81525b6020810151815110156109fd5780606001511561085b5760a081015181518151811061081e5761081e613b35565b60200260200101518160e001518260400151835f015161083e9190613bf6565b8151811061084e5761084e613b35565b6020026020010181815250505b60c081015181518151811061087257610872613b35565b60200260200101518160e00151825f01518151811061089357610893613b35565b6020908102919091010152805160010161016082015260608101511561090d578060a00151816101600151815181106108ce576108ce613b35565b60200260200101518160e0015182604001518361016001516108f09190613bf6565b8151811061090057610900613b35565b6020026020010181815250505b8060c001518161016001518151811061092857610928613b35565b60200260200101518160e001518261016001518151811061094b5761094b613b35565b60200260200101818152505080606001516109e5576109ac8160c00151825f01518151811061097c5761097c613b35565b60200260200101518260c001518361016001518151811061099f5761099f613b35565b6020026020010151611194565b6001600160a01b038a165f908152600160205260409020610180830151815481106109d9576109d9613b35565b5f918252602090912001555b610180810180516001019052805160020181526107f0565b60028160400151610a0e9190613be3565b15610b455760018160400151610a249190613ba3565b6101a08201819052600290046020820152606081015115610a99578060a00151816101a0015181518110610a5a57610a5a613b35565b60200260200101518160e001518260400151836101a00151610a7c9190613bf6565b81518110610a8c57610a8c613b35565b6020026020010181815250505b8060c00151816101a0015181518110610ab457610ab4613b35565b60200260200101518160e00151826101a0015181518110610ad757610ad7613b35565b6020026020010181815250508060600151610b4557610b0b5f8260c00151836101a001518151811061099f5761099f613b35565b6001600160a01b038a165f9081526001602090815260409091209083015181548110610b3957610b39613b35565b5f918252602090912001555b806060015115610b8a57610b5c8160c001516112ac565b6001600160a01b038a165f9081526001602090815260409091208251610b88939192919091019061370b565b505b610bbc60405180608001604052805f6001600160a01b031681526020015f815260200160608152602001606081525090565b81610140015181604001819052508160e00151816060018190525089815f01906001600160a01b031690816001600160a01b031681525050610c368e8e8e8e808060200260200160405190810160405280939291908181526020018383602002808284375f920191909152508f92508e915087905061159d565b6101208301819052610c5f908f8f67ffffffffffffffff808a16600f90810b918a16900b611a8d565b9e9d5050505050505050505050505050565b6001602052815f5260405f208181548110610c8a575f80fd5b905f5260205f20015f91509150505481565b5f7ffffffffffffffff6c6d11716de2a2f8c500cdd19dbc6030cd280cbb9b6b8f070821215610cfa576040517fe608e18b00000000000000000000000000000000000000000000000000000000815260048101839052602401610435565b7809392ee8e921d5d073aff322e62439fcf32d7f344649470f90821315610d50576040517f71f72a3100000000000000000000000000000000000000000000000000000000815260048101839052602401610435565b50670de0b6b3a76400000290565b80825103610d9b57610d6f826112ac565b6001600160a01b0384165f9081526001602090815260409091208251610454939192919091019061370b565b60405162461bcd60e51b815260206004820152601660248201527f496e76616c696420736574206d6f76696e6720617667000000000000000000006044820152606401610435565b505050565b610de3838383611ae4565b60608183516002610e049190613c09565b1015610e525760405162461bcd60e51b815260206004820152600860248201527f535243213d5447540000000000000000000000000000000000000000000000006044820152606401610435565b8167ffffffffffffffff811115610e6b57610e6b613851565b604051908082528060200260200182016040528015610e94578160200160208202803683370190505b5090505f8060018551610ea79190613ba3565b90505f610eb5600286613be3565b1590505f5b8651811015610f67576080878281518110610ed757610ed7613b35565b6020026020010151901d858581518110610ef357610ef3613b35565b60200260200101818152505083600101935081158015610f1257508281105b80610f1a5750815b15610f5b57868181518110610f3157610f31613b35565b6020026020010151600f0b858581518110610f4e57610f4e613b35565b6020026020010181815250505b60019384019301610eba565b5080610fb557858281518110610f7f57610f7f613b35565b6020026020010151600f0b84600187610f989190613ba3565b81518110610fa857610fa8613b35565b6020026020010181815250505b50505092915050565b60605f8267ffffffffffffffff811115610fda57610fda613851565b604051908082528060200260200182016040528015611003578160200160208202803683370190505b5090505f845f8151811061101957611019613b35565b6020026020010151600f0b90505f81670de0b6b3a764000061103b9190613c20565b905085516001036110eb575f5b858110156110e5575f89828151811061106357611063613b35565b602002602001015190506110bf670de0b6b3a76400006110a5858c868151811061108f5761108f613b35565b6020026020010151611bf590919063ffffffff16565b6110af8488611bf5565b6110b99190613c46565b90611cfc565b8583815181106110d1576110d1613b35565b602090810291909101015250600101611048565b50611188565b5f5b858110156111865786818151811061110757611107613b35565b6020026020010151600f0b925082670de0b6b3a76400000391505f89828151811061113457611134613b35565b60200260200101519050611160670de0b6b3a76400006110a5858c868151811061108f5761108f613b35565b85838151811061117257611172613b35565b6020908102919091010152506001016110ed565b505b50909695505050505050565b5f6f7fffffffffffffffffffffffffffffff83138015906111c557506f7fffffffffffffffffffffffffffffff8213155b6112115760405162461bcd60e51b815260206004820152600860248201527f4f766572666c6f770000000000000000000000000000000000000000000000006044820152606401610435565b6f7fffffffffffffffffffffffffffffff19831280159061124357506f7fffffffffffffffffffffffffffffff198212155b61128f5760405162461bcd60e51b815260206004820152600960248201527f556e646572666c6f7700000000000000000000000000000000000000000000006044820152606401610435565b506fffffffffffffffffffffffffffffffff1660809190911b1790565b8051606090805f8181036113045760405162461bcd60e51b81526004016104359060208082526004908201527f4c454e3000000000000000000000000000000000000000000000000000000000604082015260600190565b600285516113129190613be3565b5f036113e3576002820491508167ffffffffffffffff81111561133757611337613851565b604051908082528060200260200182016040528015611360578160200160208202803683370190505b5093505f5b611370600185613ba3565b8110156113dd576113b286828151811061138c5761138c613b35565b6020026020010151878360016113a29190613bf6565b8151811061099f5761099f613b35565b8583815181106113c4576113c4613b35565b6020908102919091010152600190910190600201611365565b50611595565b5f85600187516113f39190613ba3565b8151811061140357611403613b35565b602002602001015190506f7fffffffffffffffffffffffffffffff19600f0b811215801561144157506f7fffffffffffffffffffffffffffffff8113155b61148d5760405162461bcd60e51b815260206004820152601b60248201527f4c61737420617272617920656c656d656e74206f766572666c6f7700000000006044820152606401610435565b60025f1984010460010192508267ffffffffffffffff8111156114b2576114b2613851565b6040519080825280602002602001820160405280156114db578160200160208202803683370190505b5094505f6114ea600286613ba3565b90505f5b8181101561154c5761152188828151811061150b5761150b613b35565b6020026020010151898360016113a29190613bf6565b87858151811061153357611533613b35565b60209081029190910101526001909301926002016114ee565b5086611559600187613ba3565b8151811061156957611569613b35565b6020026020010151600f0b86848151811061158657611586613b35565b60200260200101818152505050505b505050919050565b60606115e360405180610100016040528060608152602001606081526020015f81526020015f151581526020015f81526020015f81526020015f81526020015f81525090565b84845f8181106115f5576115f5613b35565b90506020028101906116079190613b49565b808060200260200160405190810160405280939291908181526020018383602002808284375f9201829052509385525050506060820152600184111561169857670de0b6b3a76400008585600181811061166357611663613b35565b90506020028101906116759190613b49565b5f81811061168557611685613b35565b6020029190910135919091146060830152505b602083018790526116a98684611e05565b60208201525f60808201525b60808101518711156118355782606001518160800151815181106116db576116db613b35565b60200260200101518160a001818152505080606001511561171e578581608001518151811061170c5761170c613b35565b60200260200101518160a00181815250505b611768816020015182608001518151811061173b5761173b613b35565b60200260200101516117628360a00151670de0b6b3a7640000611cfc90919063ffffffff16565b90611bf5565b816020015182608001518151811061178257611782613b35565b60209081029190910101528051516001036117d25780602001518160800151815181106117b1576117b1613b35565b6020026020010151816040018181516117ca9190613c46565b905250611825565b611810815f01518260800151815181106117ee576117ee613b35565b6020026020010151826020015183608001518151811061108f5761108f613b35565b816040018181516118219190613c46565b9052505b60808101805160010190526116b5565b8667ffffffffffffffff81111561184e5761184e613851565b604051908082528060200260200182016040528015611877578160200160208202803683370190505b5081515190925060010361195757604081018051889190611899908390613c6d565b9052505f60808201525b6080810151871115611952575f6118f682602001518360800151815181106118cd576118cd613b35565b602002602001015183604001516118e49190613c20565b835180515f9061108f5761108f613b35565b8989846080015181811061190c5761190c613b35565b9050602002013561191d9190613c46565b9050808383608001518151811061193657611936613b35565b60209081029190910101525060808101805160010190526118a3565b611a82565b5f60808201525b805151608082015110156119af57805160808201518151811061198357611983613b35565b60200260200101518160c00181815161199c9190613c46565b905250608081018051600101905261195e565b60c081015160408201516119c291611cfc565b60408201525f60808201525b6080810151871115611a82575f611a2682602001518360800151815181106119f8576119f8613b35565b60200260200101518360400151611a0f9190613c20565b835160808501518151811061108f5761108f613b35565b89898460800151818110611a3c57611a3c613b35565b90506020020135611a4d9190613c46565b90508083836080015181518110611a6657611a66613b35565b60209081029190910101525060808101805160010190526119ce565b509695505050505050565b6060611a99868361260a565b9550611ada8585808060200260200160405190810160405280939291908181526020018383602002808284375f920191909152508a92508791506127939050565b9695505050505050565b6001600160a01b0383165f90815260208190526040902054825182148015611b6f5750801580611b36575060028351611b1d9190613be3565b158015611b3657508060028451611b349190613c99565b145b80611b6f575060028351611b4a9190613be3565b15801590611b6f57508060028451611b629190613c99565b611b6d906001613bf6565b145b15611bad57611b7d836112ac565b6001600160a01b0385165f908152602081815260409091208251611ba7939192919091019061370b565b50610454565b60405162461bcd60e51b815260206004820152601460248201527f496e76616c696420736574206772616469656e740000000000000000000000006044820152606401610435565b5f600160ff1b831480611c0b5750600160ff1b82145b15611c42576040517f3406846c00000000000000000000000000000000000000000000000000000000815260040160405180910390fd5b5f805f8512611c515784611c55565b845f035b91505f8412611c645783611c68565b835f035b90505f611c758383612b46565b90507f7fffffffffffffffffffffffffffffffffffffffffffffffffffffffffffffff811115611cd4576040517fbf79e8d900000000000000000000000000000000000000000000000000000000815260048101829052602401610435565b5f19808713908613808218600114611cec5782611cf0565b825f035b98975050505050505050565b5f600160ff1b831480611d125750600160ff1b82145b15611d49576040517fb3c754a300000000000000000000000000000000000000000000000000000000815260040160405180910390fd5b5f805f8512611d585784611d5c565b845f035b91505f8412611d6b5783611d6f565b835f035b90505f611d8583670de0b6b3a764000084612c3b565b90507f7fffffffffffffffffffffffffffffffffffffffffffffffffffffffffffffff811115611de4576040517f7cb4bef500000000000000000000000000000000000000000000000000000000815260048101829052602401610435565b5f19808713908613808218600114611dfc5782611cf0565b611cf083613cac565b6060611e426040518060e001604052805f81526020015f81526020015f81526020015f81526020015f815260200160608152602001606081525090565b826020015167ffffffffffffffff811115611e5f57611e5f613851565b604051908082528060200260200182016040528015611e88578160200160208202803683370190505b5060a082015282516001600160a01b03165f90815260208181526040918290208054835181840281018401909452808452611efa9392830182828015611eeb57602002820191905f5260205f20905b815481526020019060010190808311611ed7575b50505050508460200151610df3565b60c082015260208301515f90611f1290600290613be3565b5f141590505f60018560200151611f299190613ba3565b90505f85604001515f81518110611f4257611f42613b35565b6020026020010151600f0b90505f81670de0b6b3a7640000611f649190613c20565b905086604001515160010361229657611f89826110b9836729a2241af62c0000612d1c565b85528315611f98575f19909201915b5f5b8381101561219757611fe88289606001518381518110611fbc57611fbc613b35565b60200260200101518b8481518110611fd657611fd6613b35565b60200260200101516110b99190613c20565b6120188760c00151838151811061200157612001613b35565b602002602001015185611bf590919063ffffffff16565b6120229190613c46565b6020870181905260c087015180518390811061204057612040613b35565b602090810291909101810191909152860151865161205d91611bf5565b8660a00151828151811061207357612073613b35565b602090810291909101015260018101606080880182905289015180516120c29285929181106120a4576120a4613b35565b60200260200101518b896060015181518110611fd657611fd6613b35565b6120df8760c0015188606001518151811061200157612001613b35565b6120e99190613c46565b6040870181905286516120fb91611bf5565b8660a0015187606001518151811061211557612115613b35565b60200260200101818152505061214c8660c00151828151811061213a5761213a613b35565b60200260200101518760400151611194565b88516001600160a01b03165f90815260208190526040902060808801518154811061217957612179613b35565b5f918252602090912001556080860180516001019052600201611f9a565b508315612291578260010192506121d881886060015185815181106121be576121be613b35565b60200260200101518a8681518110611fd657611fd6613b35565b6122088660c0015185815181106121f1576121f1613b35565b602002602001015184611bf590919063ffffffff16565b6122129190613c46565b60208601819052612224905f90611194565b87516001600160a01b03165f90815260208190526040902060808701518154811061225157612251613b35565b5f9182526020918290200191909155850151855161226e91611bf5565b8560a00151848151811061228457612284613b35565b6020026020010181815250505b6125fb565b83156122a8576122a583613cc6565b92505b5f5b838110156124e257876040015181815181106122c8576122c8613b35565b6020026020010151600f0b925082670de0b6b3a7640000039150612301836110b96729a2241af62c000085612d1c90919063ffffffff16565b86526060880151805161232091849184908110611fbc57611fbc613b35565b6123398760c00151838151811061200157612001613b35565b6123439190613c46565b6020870181905260c087015180518390811061236157612361613b35565b602090810291909101810191909152860151865161237e91611bf5565b8660a00151828151811061239457612394613b35565b602090810291909101015260018101606087018190526040890151805190919081106123c2576123c2613b35565b6020026020010151600f0b925082670de0b6b3a76400000391506123fb836110b96729a2241af62c000085612d1c90919063ffffffff16565b865260608089015190870151815161241f928592909181106120a4576120a4613b35565b61243c8760c0015188606001518151811061200157612001613b35565b6124469190613c46565b60408701819052865161245891611bf5565b8660a0015187606001518151811061247257612472613b35565b6020026020010181815250506124978660c00151828151811061213a5761213a613b35565b88516001600160a01b03165f9081526020819052604090206080880151815481106124c4576124c4613b35565b5f9182526020909120015560808601805160010190526002016122aa565b5083156125fb578260010192508660400151838151811061250557612505613b35565b6020026020010151600f0b915081670de0b6b3a764000003905061253e826110b96729a2241af62c000084612d1c90919063ffffffff16565b85526060870151805161255d918391869081106121be576121be613b35565b6125768660c0015185815181106121f1576121f1613b35565b6125809190613c46565b60208601819052855161259291611bf5565b8560a0015184815181106125a8576125a8613b35565b6020026020010181815250506125c25f8660200151611194565b87516001600160a01b03165f9081526020819052604090206080870151815481106125ef576125ef613b35565b5f918252602090912001555b5050505060a001519392505050565b815160609060018190036126215783915050610381565b5f8390505f612637856117626001895103610c9c565b670de0b6b3a764000090810391505f805b85811015612709578489828151811061266357612663613b35565b6020026020010151121561269a578489828151811061268457612684613b35565b6020026020010181815250508483039250612701565b838982815181106126ad576126ad613b35565b602002602001015113156126e257838982815181106126ce576126ce613b35565b602090810291909101015290830190612701565b8881815181106126f4576126f4613b35565b6020026020010151820191505b600101612648565b508015612787575f61271b8383611cfc565b90505f5b8681101561278457858a828151811061273a5761273a613b35565b60200260200101511461277c5761275d828b838151811061108f5761108f613b35565b8a828151811061276f5761276f613b35565b6020026020010181815250505b60010161271f565b50505b50959695505050505050565b6060815f5b8551811015612865575f8582815181106127b4576127b4613b35565b60200260200101518783815181106127ce576127ce613b35565b60200260200101511315612818578582815181106127ee576127ee613b35565b602002602001015187838151811061280857612808613b35565b6020026020010151039050612850565b86828151811061282a5761282a613b35565b602002602001015186838151811061284457612844613b35565b60200260200101510390505b8281131561285c578092505b50600101612798565b505f805f805f878613156129c9575f61287e8988611cfc565b90505f5b8a518110156129c2575f6128d3838e84815181106128a2576128a2613b35565b60200260200101518e85815181106128bc576128bc613b35565b602002602001015103611bf590919063ffffffff16565b9050808d83815181106128e8576128e8613b35565b6020026020010151018c838151811061290357612903613b35565b6020026020010181815250508b828151811061292157612921613b35565b602002602001015188019750858c838151811061294057612940613b35565b60200260200101511315612978578593508694508b828151811061296657612966613b35565b602002602001015195508196506129b9565b838c838151811061298b5761298b613b35565b602002602001015113156129b9578b82815181106129ab576129ab613b35565b602002602001015193508194505b50600101612882565b5050612a88565b5f5b8951811015612a86578981815181106129e6576129e6613b35565b602002602001015186019550838a8281518110612a0557612a05613b35565b60200260200101511315612a3d57839150849250898181518110612a2b57612a2b613b35565b60200260200101519350809450612a7e565b818a8281518110612a5057612a50613b35565b60200260200101511315612a7e57898181518110612a7057612a70613b35565b602002602001015191508092505b6001016129cb565b505b670de0b6b3a76400008514612b3557670de0b6b3a7640000851315612af057670de0b6b3a76400008503898581518110612ac457612ac4613b35565b602002602001015103898581518110612adf57612adf613b35565b602002602001018181525050612b35565b84670de0b6b3a764000003898381518110612b0d57612b0d613b35565b602002602001015101898381518110612b2857612b28613b35565b6020026020010181815250505b5050505050508290505b9392505050565b5f80805f19848609848602925082811083820303915050670de0b6b3a76400008110612ba1576040517fd31b340200000000000000000000000000000000000000000000000000000000815260048101829052602401610435565b5f80670de0b6b3a764000086880991506706f05b59d3b1ffff82119050825f03612bdd5780670de0b6b3a7640000850401945050505050610381565b6204000082850304939091119091037d40000000000000000000000000000000000000000000000000000000000002919091177faccb18165bd6fe31ae1cf318dc5b51eee0e1ba569b88cd74c1773b91fac106690201905092915050565b5f80805f19858709858702925082811083820303915050805f03612c7257838281612c6857612c68613bcf565b0492505050612b3f565b838110612cb5576040517f773cc18c0000000000000000000000000000000000000000000000000000000081526004810182905260248101859052604401610435565b5f8486880960026001871981018816978890046003810283188082028403028082028403028082028403028082028403028082028403029081029092039091025f889003889004909101858311909403939093029303949094049190911702949350505050565b5f825f03612d41578115612d30575f612d3a565b670de0b6b3a76400005b9050610381565b612b3f612d56612d5085612d5b565b84611bf5565b612e54565b5f808213612d98576040517f613f4fba00000000000000000000000000000000000000000000000000000000815260048101839052602401610435565b5f670de0b6b3a76400008312612db057506001612dc9565b5f199050826ec097ce7bc90715b34b9f10000000000492505b5f612ddd670de0b6b3a76400008505612f0b565b670de0b6b3a764000081029350905083811d670de0b6b3a763ffff198101612e0757505002919050565b6706f05b59d3b200005b5f811315612e4b57670de0b6b3a7640000828002059150671bc16d674ec800008212612e43579384019360019190911d905b60011d612e11565b50505002919050565b5f80821215612ea55768033dd1780914b9711419821215612e7657505f919050565b612e81825f03612e54565b6ec097ce7bc90715b34b9f100000000081612e9e57612e9e613bcf565b0592915050565b680a688906bd8b0000008212612eea576040517fe69458f900000000000000000000000000000000000000000000000000000000815260048101839052602401610435565b670de0b6b3a7640000604083901b04612f0281612ffb565b9150505b919050565b5f7001000000000000000000000000000000008210612f3757608091821c91612f349082613bf6565b90505b680100000000000000008210612f5a57604091821c91612f579082613bf6565b90505b6401000000008210612f7957602091821c91612f769082613bf6565b90505b620100008210612f9657601091821c91612f939082613bf6565b90505b6101008210612fb257600891821c91612faf9082613bf6565b90505b60108210612fcd57600491821c91612fca9082613bf6565b90505b60048210612fe857600291821c91612fe59082613bf6565b90505b60028210612f0657610381600182613bf6565b778000000000000000000000000000000000000000000000006780000000000000008216156130335768016a09e667f3bcc9090260401c5b674000000000000000821615613052576801306fe0a31b7152df0260401c5b672000000000000000821615613071576801172b83c7d517adce0260401c5b6710000000000000008216156130905768010b5586cf9890f62a0260401c5b6708000000000000008216156130af576801059b0d31585743ae0260401c5b6704000000000000008216156130ce57680102c9a3e778060ee70260401c5b6702000000000000008216156130ed5768010163da9fb33356d80260401c5b67010000000000000082161561310c57680100b1afa5abcbed610260401c5b668000000000000082161561312a5768010058c86da1c09ea20260401c5b6640000000000000821615613148576801002c605e2e8cec500260401c5b662000000000000082161561316657680100162f3904051fa10260401c5b6610000000000000821615613184576801000b175effdc76ba0260401c5b66080000000000008216156131a257680100058ba01fb9f96d0260401c5b66040000000000008216156131c05768010002c5cc37da94920260401c5b66020000000000008216156131de576801000162e525ee05470260401c5b66010000000000008216156131fc5768010000b17255775c040260401c5b65800000000000821615613219576801000058b91b5bc9ae0260401c5b6540000000000082161561323657680100002c5c89d5ec6d0260401c5b652000000000008216156132535768010000162e43f4f8310260401c5b6510000000000082161561327057680100000b1721bcfc9a0260401c5b6508000000000082161561328d5768010000058b90cf1e6e0260401c5b650400000000008216156132aa576801000002c5c863b73f0260401c5b650200000000008216156132c757680100000162e430e5a20260401c5b650100000000008216156132e4576801000000b1721835510260401c5b64800000000082161561330057680100000058b90c0b490260401c5b64400000000082161561331c5768010000002c5c8601cc0260401c5b642000000000821615613338576801000000162e42fff00260401c5b6410000000008216156133545768010000000b17217fbb0260401c5b640800000000821615613370576801000000058b90bfce0260401c5b64040000000082161561338c57680100000002c5c85fe30260401c5b6402000000008216156133a85768010000000162e42ff10260401c5b6401000000008216156133c457680100000000b17217f80260401c5b63800000008216156133df5768010000000058b90bfc0260401c5b63400000008216156133fa576801000000002c5c85fe0260401c5b632000000082161561341557680100000000162e42ff0260401c5b6310000000821615613430576801000000000b17217f0260401c5b630800000082161561344b57680100000000058b90c00260401c5b63040000008216156134665768010000000002c5c8600260401c5b6302000000821615613481576801000000000162e4300260401c5b630100000082161561349c5768010000000000b172180260401c5b628000008216156134b6576801000000000058b90c0260401c5b624000008216156134d057680100000000002c5c860260401c5b622000008216156134ea5768010000000000162e430260401c5b6210000082161561350457680100000000000b17210260401c5b6208000082161561351e5768010000000000058b910260401c5b62040000821615613538576801000000000002c5c80260401c5b6202000082161561355257680100000000000162e40260401c5b6201000082161561356c576801000000000000b1720260401c5b61800082161561358557680100000000000058b90260401c5b61400082161561359e5768010000000000002c5d0260401c5b6120008216156135b7576801000000000000162e0260401c5b6110008216156135d05768010000000000000b170260401c5b6108008216156135e9576801000000000000058c0260401c5b61040082161561360257680100000000000002c60260401c5b61020082161561361b57680100000000000001630260401c5b61010082161561363457680100000000000000b10260401c5b608082161561364c57680100000000000000590260401c5b6040821615613664576801000000000000002c0260401c5b602082161561367c57680100000000000000160260401c5b6010821615613694576801000000000000000b0260401c5b60088216156136ac57680100000000000000060260401c5b60048216156136c457680100000000000000030260401c5b60028216156136dc57680100000000000000010260401c5b60018216156136f457680100000000000000010260401c5b670de0b6b3a76400000260409190911c60bf031c90565b828054828255905f5260205f20908101928215613744579160200282015b82811115613744578251825591602001919060010190613729565b50613750929150613754565b5090565b5b80821115613750575f8155600101613755565b602081525f82518060208401528060208501604085015e5f604082850101526040601f19601f83011684010191505092915050565b5f8083601f8401126137ad575f80fd5b50813567ffffffffffffffff8111156137c4575f80fd5b6020830191508360208260051b85010111156137de575f80fd5b9250929050565b5f80602083850312156137f6575f80fd5b823567ffffffffffffffff81111561380c575f80fd5b6138188582860161379d565b90969095509350505050565b5f60208284031215613834575f80fd5b5035919050565b80356001600160a01b0381168114612f06575f80fd5b634e487b7160e01b5f52604160045260245ffd5b5f82601f830112613874575f80fd5b813567ffffffffffffffff81111561388e5761388e613851565b8060051b604051601f19603f830116810181811067ffffffffffffffff821117156138bb576138bb613851565b6040529182526020818501810192908101868411156138d8575f80fd5b6020860192505b838310156138f75782358152602092830192016138df565b5095945050505050565b5f805f8060808587031215613914575f80fd5b61391d8561383b565b9350602085013567ffffffffffffffff811115613938575f80fd5b61394487828801613865565b935050604085013567ffffffffffffffff811115613960575f80fd5b61396c87828801613865565b949793965093946060013593505050565b803567ffffffffffffffff81168114612f06575f80fd5b5f805f805f805f805f805f60e08c8e0312156139ae575f80fd5b8b3567ffffffffffffffff8111156139c4575f80fd5b6139d08e828f0161379d565b909c509a505060208c013567ffffffffffffffff8111156139ef575f80fd5b6139fb8e828f0161379d565b909a509850613a0e905060408d0161383b565b965060608c013567ffffffffffffffff811115613a29575f80fd5b613a358e828f0161379d565b90975095505060808c013567ffffffffffffffff811115613a54575f80fd5b613a608e828f0161379d565b9095509350613a73905060a08d0161397d565b9150613a8160c08d0161397d565b90509295989b509295989b9093969950565b602080825282518282018190525f918401906040840190835b81811015613aca578351835260209384019390920191600101613aac565b509095945050505050565b5f8060408385031215613ae6575f80fd5b613aef8361383b565b946020939093013593505050565b600181811c90821680613b1157607f821691505b602082108103613b2f57634e487b7160e01b5f52602260045260245ffd5b50919050565b634e487b7160e01b5f52603260045260245ffd5b5f808335601e19843603018112613b5e575f80fd5b83018035915067ffffffffffffffff821115613b78575f80fd5b6020019150600581901b36038213156137de575f80fd5b634e487b7160e01b5f52601160045260245ffd5b8181038181111561038157610381613b8f565b5f60208284031215613bc6575f80fd5b612b3f8261397d565b634e487b7160e01b5f52601260045260245ffd5b5f82613bf157613bf1613bcf565b500690565b8082018082111561038157610381613b8f565b808202811582820484141761038157610381613b8f565b8181035f831280158383131683831282161715613c3f57613c3f613b8f565b5092915050565b8082018281125f831280158216821582161715613c6557613c65613b8f565b505092915050565b5f82613c7b57613c7b613bcf565b600160ff1b82145f1984141615613c9457613c94613b8f565b500590565b5f82613ca757613ca7613bcf565b500490565b5f600160ff1b8203613cc057613cc0613b8f565b505f0390565b5f81613cd457613cd4613b8f565b505f19019056fea2646970667358221220aa55c54cea979fb5284595f74a895664005b8fd5ef6095446e128001dcad228364736f6c634300081a00334c616d6264613a204c616d6264612064696374617465732074686520657374696d61746f7220776569676874696e6720616e6420707269636520736d6f6f7468696e6720666f72206120676976656e20706572696f64206f662074696d654b617070613a204b617070612064696374617465732074686520616767726573736976656e657373206f66207468652072756c65277320726573706f6e736520746f2061207369676e616c206368616e67652028686572652c202d287072696365206772616469656e742929557365207261772070726963653a2030203d20757365206d6f76696e6720617665726167652c2031203d207573652072617720707269636520746f2062652075736564206173207468652064656e6f6d696e61746f72","linkReferences":{}},"methodIdentifiers":{"CalculateNewWeights(int256[],int256[],address,int256[][],uint64[],uint64,uint64)":"b9579b0d","initialisePoolRuleIntermediateValues(address,int256[],int256[],uint256)":"44a01eb3","movingAverages(address,uint256)":"fe8cb6d7","name()":"06fdde03","parameterDescriptions(uint256)":"33417d8e","validParameters(int256[][])":"0df61b8f"},"id":451}